{
  "_format": "hh-sol-artifact-1",
  "contractName": "RUCQRCode",
  "sourceName": "contracts/RUCQRCode.sol",
  "abi": [
    {
      "inputs": [],
      "stateMutability": "nonpayable",
      "type": "constructor"
    },
    {
      "inputs": [
        {
          "internalType": "address",
          "name": "sender",
          "type": "address"
        },
        {
          "internalType": "uint256",
          "name": "tokenId",
          "type": "uint256"
        },
        {
          "internalType": "address",
          "name": "owner",
          "type": "address"
        }
      ],
      "name": "ERC721IncorrectOwner",
      "type": "error"
    },
    {
      "inputs": [
        {
          "internalType": "address",
          "name": "operator",
          "type": "address"
        },
        {
          "internalType": "uint256",
          "name": "tokenId",
          "type": "uint256"
        }
      ],
      "name": "ERC721InsufficientApproval",
      "type": "error"
    },
    {
      "inputs": [
        {
          "internalType": "address",
          "name": "approver",
          "type": "address"
        }
      ],
      "name": "ERC721InvalidApprover",
      "type": "error"
    },
    {
      "inputs": [
        {
          "internalType": "address",
          "name": "operator",
          "type": "address"
        }
      ],
      "name": "ERC721InvalidOperator",
      "type": "error"
    },
    {
      "inputs": [
        {
          "internalType": "address",
          "name": "owner",
          "type": "address"
        }
      ],
      "name": "ERC721InvalidOwner",
      "type": "error"
    },
    {
      "inputs": [
        {
          "internalType": "address",
          "name": "receiver",
          "type": "address"
        }
      ],
      "name": "ERC721InvalidReceiver",
      "type": "error"
    },
    {
      "inputs": [
        {
          "internalType": "address",
          "name": "sender",
          "type": "address"
        }
      ],
      "name": "ERC721InvalidSender",
      "type": "error"
    },
    {
      "inputs": [
        {
          "internalType": "uint256",
          "name": "tokenId",
          "type": "uint256"
        }
      ],
      "name": "ERC721NonexistentToken",
      "type": "error"
    },
    {
      "anonymous": false,
      "inputs": [
        {
          "indexed": true,
          "internalType": "address",
          "name": "owner",
          "type": "address"
        },
        {
          "indexed": true,
          "internalType": "address",
          "name": "approved",
          "type": "address"
        },
        {
          "indexed": true,
          "internalType": "uint256",
          "name": "tokenId",
          "type": "uint256"
        }
      ],
      "name": "Approval",
      "type": "event"
    },
    {
      "anonymous": false,
      "inputs": [
        {
          "indexed": true,
          "internalType": "address",
          "name": "owner",
          "type": "address"
        },
        {
          "indexed": true,
          "internalType": "address",
          "name": "operator",
          "type": "address"
        },
        {
          "indexed": false,
          "internalType": "bool",
          "name": "approved",
          "type": "bool"
        }
      ],
      "name": "ApprovalForAll",
      "type": "event"
    },
    {
      "anonymous": false,
      "inputs": [
        {
          "indexed": false,
          "internalType": "uint256",
          "name": "_fromTokenId",
          "type": "uint256"
        },
        {
          "indexed": false,
          "internalType": "uint256",
          "name": "_toTokenId",
          "type": "uint256"
        }
      ],
      "name": "BatchMetadataUpdate",
      "type": "event"
    },
    {
      "anonymous": false,
      "inputs": [
        {
          "indexed": false,
          "internalType": "uint256",
          "name": "_tokenId",
          "type": "uint256"
        }
      ],
      "name": "MetadataUpdate",
      "type": "event"
    },
    {
      "anonymous": false,
      "inputs": [
        {
          "indexed": true,
          "internalType": "address",
          "name": "from",
          "type": "address"
        },
        {
          "indexed": true,
          "internalType": "address",
          "name": "to",
          "type": "address"
        },
        {
          "indexed": true,
          "internalType": "uint256",
          "name": "tokenId",
          "type": "uint256"
        }
      ],
      "name": "Transfer",
      "type": "event"
    },
    {
      "inputs": [],
      "name": "MAX_SUPPLY",
      "outputs": [
        {
          "internalType": "uint256",
          "name": "",
          "type": "uint256"
        }
      ],
      "stateMutability": "view",
      "type": "function"
    },
    {
      "inputs": [
        {
          "internalType": "address",
          "name": "to",
          "type": "address"
        },
        {
          "internalType": "uint256",
          "name": "tokenId",
          "type": "uint256"
        }
      ],
      "name": "approve",
      "outputs": [],
      "stateMutability": "nonpayable",
      "type": "function"
    },
    {
      "inputs": [
        {
          "internalType": "address",
          "name": "owner",
          "type": "address"
        }
      ],
      "name": "balanceOf",
      "outputs": [
        {
          "internalType": "uint256",
          "name": "",
          "type": "uint256"
        }
      ],
      "stateMutability": "view",
      "type": "function"
    },
    {
      "inputs": [
        {
          "internalType": "uint256",
          "name": "tokenId",
          "type": "uint256"
        }
      ],
      "name": "getApproved",
      "outputs": [
        {
          "internalType": "address",
          "name": "",
          "type": "address"
        }
      ],
      "stateMutability": "view",
      "type": "function"
    },
    {
      "inputs": [
        {
          "internalType": "address",
          "name": "owner",
          "type": "address"
        },
        {
          "internalType": "address",
          "name": "operator",
          "type": "address"
        }
      ],
      "name": "isApprovedForAll",
      "outputs": [
        {
          "internalType": "bool",
          "name": "",
          "type": "bool"
        }
      ],
      "stateMutability": "view",
      "type": "function"
    },
    {
      "inputs": [
        {
          "internalType": "address",
          "name": "recipient",
          "type": "address"
        },
        {
          "internalType": "string",
          "name": "tokenURI",
          "type": "string"
        }
      ],
      "name": "mintNFT",
      "outputs": [
        {
          "internalType": "uint256",
          "name": "",
          "type": "uint256"
        }
      ],
      "stateMutability": "nonpayable",
      "type": "function"
    },
    {
      "inputs": [],
      "name": "name",
      "outputs": [
        {
          "internalType": "string",
          "name": "",
          "type": "string"
        }
      ],
      "stateMutability": "view",
      "type": "function"
    },
    {
      "inputs": [
        {
          "internalType": "uint256",
          "name": "tokenId",
          "type": "uint256"
        }
      ],
      "name": "ownerOf",
      "outputs": [
        {
          "internalType": "address",
          "name": "",
          "type": "address"
        }
      ],
      "stateMutability": "view",
      "type": "function"
    },
    {
      "inputs": [
        {
          "internalType": "address",
          "name": "from",
          "type": "address"
        },
        {
          "internalType": "address",
          "name": "to",
          "type": "address"
        },
        {
          "internalType": "uint256",
          "name": "tokenId",
          "type": "uint256"
        }
      ],
      "name": "safeTransferFrom",
      "outputs": [],
      "stateMutability": "nonpayable",
      "type": "function"
    },
    {
      "inputs": [
        {
          "internalType": "address",
          "name": "from",
          "type": "address"
        },
        {
          "internalType": "address",
          "name": "to",
          "type": "address"
        },
        {
          "internalType": "uint256",
          "name": "tokenId",
          "type": "uint256"
        },
        {
          "internalType": "bytes",
          "name": "data",
          "type": "bytes"
        }
      ],
      "name": "safeTransferFrom",
      "outputs": [],
      "stateMutability": "nonpayable",
      "type": "function"
    },
    {
      "inputs": [
        {
          "internalType": "address",
          "name": "operator",
          "type": "address"
        },
        {
          "internalType": "bool",
          "name": "approved",
          "type": "bool"
        }
      ],
      "name": "setApprovalForAll",
      "outputs": [],
      "stateMutability": "nonpayable",
      "type": "function"
    },
    {
      "inputs": [
        {
          "internalType": "bytes4",
          "name": "interfaceId",
          "type": "bytes4"
        }
      ],
      "name": "supportsInterface",
      "outputs": [
        {
          "internalType": "bool",
          "name": "",
          "type": "bool"
        }
      ],
      "stateMutability": "view",
      "type": "function"
    },
    {
      "inputs": [],
      "name": "symbol",
      "outputs": [
        {
          "internalType": "string",
          "name": "",
          "type": "string"
        }
      ],
      "stateMutability": "view",
      "type": "function"
    },
    {
      "inputs": [
        {
          "internalType": "uint256",
          "name": "tokenId",
          "type": "uint256"
        }
      ],
      "name": "tokenURI",
      "outputs": [
        {
          "internalType": "string",
          "name": "",
          "type": "string"
        }
      ],
      "stateMutability": "view",
      "type": "function"
    },
    {
      "inputs": [
        {
          "internalType": "address",
          "name": "from",
          "type": "address"
        },
        {
          "internalType": "address",
          "name": "to",
          "type": "address"
        },
        {
          "internalType": "uint256",
          "name": "tokenId",
          "type": "uint256"
        }
      ],
      "name": "transferFrom",
      "outputs": [],
      "stateMutability": "nonpayable",
      "type": "function"
    }
  ],
  "bytecode": "0x60806040523480156200001157600080fd5b506040518060400160405280600981526020017f5255435152436f646500000000000000000000000000000000000000000000008152506040518060400160405280600381526020017f4e4654000000000000000000000000000000000000000000000000000000000081525081600090816200008f919062000324565b508060019081620000a1919062000324565b5050506200040b565b600081519050919050565b7f4e487b7100000000000000000000000000000000000000000000000000000000600052604160045260246000fd5b7f4e487b7100000000000000000000000000000000000000000000000000000000600052602260045260246000fd5b600060028204905060018216806200012c57607f821691505b602082108103620001425762000141620000e4565b5b50919050565b60008190508160005260206000209050919050565b60006020601f8301049050919050565b600082821b905092915050565b600060088302620001ac7fffffffffffffffffffffffffffffffffffffffffffffffffffffffffffffffff826200016d565b620001b886836200016d565b95508019841693508086168417925050509392505050565b6000819050919050565b6000819050919050565b600062000205620001ff620001f984620001d0565b620001da565b620001d0565b9050919050565b6000819050919050565b6200022183620001e4565b6200023962000230826200020c565b8484546200017a565b825550505050565b600090565b6200025062000241565b6200025d81848462000216565b505050565b5b8181101562000285576200027960008262000246565b60018101905062000263565b5050565b601f821115620002d4576200029e8162000148565b620002a9846200015d565b81016020851015620002b9578190505b620002d1620002c8856200015d565b83018262000262565b50505b505050565b600082821c905092915050565b6000620002f960001984600802620002d9565b1980831691505092915050565b6000620003148383620002e6565b9150826002028217905092915050565b6200032f82620000aa565b67ffffffffffffffff8111156200034b576200034a620000b5565b5b62000357825462000113565b6200036482828562000289565b600060209050601f8311600181146200039c576000841562000387578287015190505b62000393858262000306565b86555062000403565b601f198416620003ac8662000148565b60005b82811015620003d657848901518255600182019150602085019450602081019050620003af565b86831015620003f65784890151620003f2601f891682620002e6565b8355505b6001600288020188555050505b505050505050565b612490806200041b6000396000f3fe608060405234801561001057600080fd5b50600436106100f55760003560e01c80636352211e11610097578063b88d4fde11610066578063b88d4fde14610284578063c87b56dd146102a0578063e985e9c5146102d0578063eacabe1414610300576100f5565b80636352211e146101ea57806370a082311461021a57806395d89b411461024a578063a22cb46514610268576100f5565b8063095ea7b3116100d3578063095ea7b31461017857806323b872dd1461019457806332cb6b0c146101b057806342842e0e146101ce576100f5565b806301ffc9a7146100fa57806306fdde031461012a578063081812fc14610148575b600080fd5b610114600480360381019061010f9190611890565b610330565b60405161012191906118d8565b60405180910390f35b610132610391565b60405161013f9190611983565b60405180910390f35b610162600480360381019061015d91906119db565b610423565b60405161016f9190611a49565b60405180910390f35b610192600480360381019061018d9190611a90565b61043f565b005b6101ae60048036038101906101a99190611ad0565b610455565b005b6101b8610557565b6040516101c59190611b32565b60405180910390f35b6101e860048036038101906101e39190611ad0565b61055d565b005b61020460048036038101906101ff91906119db565b61057d565b6040516102119190611a49565b60405180910390f35b610234600480360381019061022f9190611b4d565b61058f565b6040516102419190611b32565b60405180910390f35b610252610649565b60405161025f9190611983565b60405180910390f35b610282600480360381019061027d9190611ba6565b6106db565b005b61029e60048036038101906102999190611d1b565b6106f1565b005b6102ba60048036038101906102b591906119db565b61070e565b6040516102c79190611983565b60405180910390f35b6102ea60048036038101906102e59190611d9e565b610821565b6040516102f791906118d8565b60405180910390f35b61031a60048036038101906103159190611e7f565b6108b5565b6040516103279190611b32565b60405180910390f35b6000634906490660e01b7bffffffffffffffffffffffffffffffffffffffffffffffffffffffff1916827bffffffffffffffffffffffffffffffffffffffffffffffffffffffff1916148061038a57506103898261093c565b5b9050919050565b6060600080546103a090611f0a565b80601f01602080910402602001604051908101604052809291908181526020018280546103cc90611f0a565b80156104195780601f106103ee57610100808354040283529160200191610419565b820191906000526020600020905b8154815290600101906020018083116103fc57829003601f168201915b5050505050905090565b600061042e82610a1e565b5061043882610aa6565b9050919050565b610451828261044c610ae3565b610aeb565b5050565b600073ffffffffffffffffffffffffffffffffffffffff168273ffffffffffffffffffffffffffffffffffffffff16036104c75760006040517f64a0ae920000000000000000000000000000000000000000000000000000000081526004016104be9190611a49565b60405180910390fd5b60006104db83836104d6610ae3565b610afd565b90508373ffffffffffffffffffffffffffffffffffffffff168173ffffffffffffffffffffffffffffffffffffffff1614610551578382826040517f64283d7b00000000000000000000000000000000000000000000000000000000815260040161054893929190611f3b565b60405180910390fd5b50505050565b6103e881565b610578838383604051806020016040528060008152506106f1565b505050565b600061058882610a1e565b9050919050565b60008073ffffffffffffffffffffffffffffffffffffffff168273ffffffffffffffffffffffffffffffffffffffff16036106025760006040517f89c62b640000000000000000000000000000000000000000000000000000000081526004016105f99190611a49565b60405180910390fd5b600360008373ffffffffffffffffffffffffffffffffffffffff1673ffffffffffffffffffffffffffffffffffffffff168152602001908152602001600020549050919050565b60606001805461065890611f0a565b80601f016020809104026020016040519081016040528092919081815260200182805461068490611f0a565b80156106d15780601f106106a6576101008083540402835291602001916106d1565b820191906000526020600020905b8154815290600101906020018083116106b457829003601f168201915b5050505050905090565b6106ed6106e6610ae3565b8383610d17565b5050565b6106fc848484610455565b61070884848484610e86565b50505050565b606061071982610a1e565b50600060066000848152602001908152602001600020805461073a90611f0a565b80601f016020809104026020016040519081016040528092919081815260200182805461076690611f0a565b80156107b35780601f10610788576101008083540402835291602001916107b3565b820191906000526020600020905b81548152906001019060200180831161079657829003601f168201915b5050505050905060006107c461103d565b905060008151036107d957819250505061081c565b60008251111561080e5780826040516020016107f6929190611fae565b6040516020818303038152906040529250505061081c565b61081784611054565b925050505b919050565b6000600560008473ffffffffffffffffffffffffffffffffffffffff1673ffffffffffffffffffffffffffffffffffffffff16815260200190815260200160002060008373ffffffffffffffffffffffffffffffffffffffff1673ffffffffffffffffffffffffffffffffffffffff16815260200190815260200160002060009054906101000a900460ff16905092915050565b60006103e8600754106108fd576040517f08c379a00000000000000000000000000000000000000000000000000000000081526004016108f49061201e565b60405180910390fd5b600160076000828254610910919061206d565b925050819055506000600754905061092884826110bd565b61093281846111b6565b8091505092915050565b60007f80ac58cd000000000000000000000000000000000000000000000000000000007bffffffffffffffffffffffffffffffffffffffffffffffffffffffff1916827bffffffffffffffffffffffffffffffffffffffffffffffffffffffff19161480610a0757507f5b5e139f000000000000000000000000000000000000000000000000000000007bffffffffffffffffffffffffffffffffffffffffffffffffffffffff1916827bffffffffffffffffffffffffffffffffffffffffffffffffffffffff1916145b80610a175750610a1682611212565b5b9050919050565b600080610a2a8361127c565b9050600073ffffffffffffffffffffffffffffffffffffffff168173ffffffffffffffffffffffffffffffffffffffff1603610a9d57826040517f7e273289000000000000000000000000000000000000000000000000000000008152600401610a949190611b32565b60405180910390fd5b80915050919050565b60006004600083815260200190815260200160002060009054906101000a900473ffffffffffffffffffffffffffffffffffffffff169050919050565b600033905090565b610af883838360016112b9565b505050565b600080610b098461127c565b9050600073ffffffffffffffffffffffffffffffffffffffff168373ffffffffffffffffffffffffffffffffffffffff1614610b4b57610b4a81848661147e565b5b600073ffffffffffffffffffffffffffffffffffffffff168173ffffffffffffffffffffffffffffffffffffffff1614610bdc57610b8d6000856000806112b9565b6001600360008373ffffffffffffffffffffffffffffffffffffffff1673ffffffffffffffffffffffffffffffffffffffff168152602001908152602001600020600082825403925050819055505b600073ffffffffffffffffffffffffffffffffffffffff168573ffffffffffffffffffffffffffffffffffffffff1614610c5f576001600360008773ffffffffffffffffffffffffffffffffffffffff1673ffffffffffffffffffffffffffffffffffffffff168152602001908152602001600020600082825401925050819055505b846002600086815260200190815260200160002060006101000a81548173ffffffffffffffffffffffffffffffffffffffff021916908373ffffffffffffffffffffffffffffffffffffffff160217905550838573ffffffffffffffffffffffffffffffffffffffff168273ffffffffffffffffffffffffffffffffffffffff167fddf252ad1be2c89b69c2b068fc378daa952ba7f163c4a11628f55a4df523b3ef60405160405180910390a4809150509392505050565b600073ffffffffffffffffffffffffffffffffffffffff168273ffffffffffffffffffffffffffffffffffffffff1603610d8857816040517f5b08ba18000000000000000000000000000000000000000000000000000000008152600401610d7f9190611a49565b60405180910390fd5b80600560008573ffffffffffffffffffffffffffffffffffffffff1673ffffffffffffffffffffffffffffffffffffffff16815260200190815260200160002060008473ffffffffffffffffffffffffffffffffffffffff1673ffffffffffffffffffffffffffffffffffffffff16815260200190815260200160002060006101000a81548160ff0219169083151502179055508173ffffffffffffffffffffffffffffffffffffffff168373ffffffffffffffffffffffffffffffffffffffff167f17307eab39ab6107e8899845ad3d59bd9653f200f220920489ca2b5937696c3183604051610e7991906118d8565b60405180910390a3505050565b60008373ffffffffffffffffffffffffffffffffffffffff163b1115611037578273ffffffffffffffffffffffffffffffffffffffff1663150b7a02610eca610ae3565b8685856040518563ffffffff1660e01b8152600401610eec94939291906120f6565b6020604051808303816000875af1925050508015610f2857506040513d601f19601f82011682018060405250810190610f259190612157565b60015b610fac573d8060008114610f58576040519150601f19603f3d011682016040523d82523d6000602084013e610f5d565b606091505b506000815103610fa457836040517f64a0ae92000000000000000000000000000000000000000000000000000000008152600401610f9b9190611a49565b60405180910390fd5b805181602001fd5b63150b7a0260e01b7bffffffffffffffffffffffffffffffffffffffffffffffffffffffff1916817bffffffffffffffffffffffffffffffffffffffffffffffffffffffff19161461103557836040517f64a0ae9200000000000000000000000000000000000000000000000000000000815260040161102c9190611a49565b60405180910390fd5b505b50505050565b606060405180602001604052806000815250905090565b606061105f82610a1e565b50600061106a61103d565b9050600081511161108a57604051806020016040528060008152506110b5565b8061109484611542565b6040516020016110a5929190611fae565b6040516020818303038152906040525b915050919050565b600073ffffffffffffffffffffffffffffffffffffffff168273ffffffffffffffffffffffffffffffffffffffff160361112f5760006040517f64a0ae920000000000000000000000000000000000000000000000000000000081526004016111269190611a49565b60405180910390fd5b600061113d83836000610afd565b9050600073ffffffffffffffffffffffffffffffffffffffff168173ffffffffffffffffffffffffffffffffffffffff16146111b15760006040517f73c6ac6e0000000000000000000000000000000000000000000000000000000081526004016111a89190611a49565b60405180910390fd5b505050565b806006600084815260200190815260200160002090816111d69190612330565b507ff8e1a15aba9398e019f0b49df1a4fde98ee17ae345cb5f6b5e2c27f5033e8ce7826040516112069190611b32565b60405180910390a15050565b60007f01ffc9a7000000000000000000000000000000000000000000000000000000007bffffffffffffffffffffffffffffffffffffffffffffffffffffffff1916827bffffffffffffffffffffffffffffffffffffffffffffffffffffffff1916149050919050565b60006002600083815260200190815260200160002060009054906101000a900473ffffffffffffffffffffffffffffffffffffffff169050919050565b80806112f25750600073ffffffffffffffffffffffffffffffffffffffff168273ffffffffffffffffffffffffffffffffffffffff1614155b1561142657600061130284610a1e565b9050600073ffffffffffffffffffffffffffffffffffffffff168373ffffffffffffffffffffffffffffffffffffffff161415801561136d57508273ffffffffffffffffffffffffffffffffffffffff168173ffffffffffffffffffffffffffffffffffffffff1614155b8015611380575061137e8184610821565b155b156113c257826040517fa9fbf51f0000000000000000000000000000000000000000000000000000000081526004016113b99190611a49565b60405180910390fd5b811561142457838573ffffffffffffffffffffffffffffffffffffffff168273ffffffffffffffffffffffffffffffffffffffff167f8c5be1e5ebec7d5bd14f71427d1e84f3dd0314c0f7b2291e5b200ac8c7c3b92560405160405180910390a45b505b836004600085815260200190815260200160002060006101000a81548173ffffffffffffffffffffffffffffffffffffffff021916908373ffffffffffffffffffffffffffffffffffffffff16021790555050505050565b611489838383611610565b61153d57600073ffffffffffffffffffffffffffffffffffffffff168373ffffffffffffffffffffffffffffffffffffffff16036114fe57806040517f7e2732890000000000000000000000000000000000000000000000000000000081526004016114f59190611b32565b60405180910390fd5b81816040517f177e802f000000000000000000000000000000000000000000000000000000008152600401611534929190612402565b60405180910390fd5b505050565b606060006001611551846116d1565b01905060008167ffffffffffffffff8111156115705761156f611bf0565b5b6040519080825280601f01601f1916602001820160405280156115a25781602001600182028036833780820191505090505b509050600082602001820190505b600115611605578080600190039150507f3031323334353637383961626364656600000000000000000000000000000000600a86061a8153600a85816115f9576115f861242b565b5b049450600085036115b0575b819350505050919050565b60008073ffffffffffffffffffffffffffffffffffffffff168373ffffffffffffffffffffffffffffffffffffffff16141580156116c857508273ffffffffffffffffffffffffffffffffffffffff168473ffffffffffffffffffffffffffffffffffffffff16148061168957506116888484610821565b5b806116c757508273ffffffffffffffffffffffffffffffffffffffff166116af83610aa6565b73ffffffffffffffffffffffffffffffffffffffff16145b5b90509392505050565b600080600090507a184f03e93ff9f4daa797ed6e38ed64bf6a1f010000000000000000831061172f577a184f03e93ff9f4daa797ed6e38ed64bf6a1f01000000000000000083816117255761172461242b565b5b0492506040810190505b6d04ee2d6d415b85acef8100000000831061176c576d04ee2d6d415b85acef810000000083816117625761176161242b565b5b0492506020810190505b662386f26fc10000831061179b57662386f26fc1000083816117915761179061242b565b5b0492506010810190505b6305f5e10083106117c4576305f5e10083816117ba576117b961242b565b5b0492506008810190505b61271083106117e95761271083816117df576117de61242b565b5b0492506004810190505b6064831061180c57606483816118025761180161242b565b5b0492506002810190505b600a831061181b576001810190505b80915050919050565b6000604051905090565b600080fd5b600080fd5b60007fffffffff0000000000000000000000000000000000000000000000000000000082169050919050565b61186d81611838565b811461187857600080fd5b50565b60008135905061188a81611864565b92915050565b6000602082840312156118a6576118a561182e565b5b60006118b48482850161187b565b91505092915050565b60008115159050919050565b6118d2816118bd565b82525050565b60006020820190506118ed60008301846118c9565b92915050565b600081519050919050565b600082825260208201905092915050565b60005b8381101561192d578082015181840152602081019050611912565b60008484015250505050565b6000601f19601f8301169050919050565b6000611955826118f3565b61195f81856118fe565b935061196f81856020860161190f565b61197881611939565b840191505092915050565b6000602082019050818103600083015261199d818461194a565b905092915050565b6000819050919050565b6119b8816119a5565b81146119c357600080fd5b50565b6000813590506119d5816119af565b92915050565b6000602082840312156119f1576119f061182e565b5b60006119ff848285016119c6565b91505092915050565b600073ffffffffffffffffffffffffffffffffffffffff82169050919050565b6000611a3382611a08565b9050919050565b611a4381611a28565b82525050565b6000602082019050611a5e6000830184611a3a565b92915050565b611a6d81611a28565b8114611a7857600080fd5b50565b600081359050611a8a81611a64565b92915050565b60008060408385031215611aa757611aa661182e565b5b6000611ab585828601611a7b565b9250506020611ac6858286016119c6565b9150509250929050565b600080600060608486031215611ae957611ae861182e565b5b6000611af786828701611a7b565b9350506020611b0886828701611a7b565b9250506040611b19868287016119c6565b9150509250925092565b611b2c816119a5565b82525050565b6000602082019050611b476000830184611b23565b92915050565b600060208284031215611b6357611b6261182e565b5b6000611b7184828501611a7b565b91505092915050565b611b83816118bd565b8114611b8e57600080fd5b50565b600081359050611ba081611b7a565b92915050565b60008060408385031215611bbd57611bbc61182e565b5b6000611bcb85828601611a7b565b9250506020611bdc85828601611b91565b9150509250929050565b600080fd5b600080fd5b7f4e487b7100000000000000000000000000000000000000000000000000000000600052604160045260246000fd5b611c2882611939565b810181811067ffffffffffffffff82111715611c4757611c46611bf0565b5b80604052505050565b6000611c5a611824565b9050611c668282611c1f565b919050565b600067ffffffffffffffff821115611c8657611c85611bf0565b5b611c8f82611939565b9050602081019050919050565b82818337600083830152505050565b6000611cbe611cb984611c6b565b611c50565b905082815260208101848484011115611cda57611cd9611beb565b5b611ce5848285611c9c565b509392505050565b600082601f830112611d0257611d01611be6565b5b8135611d12848260208601611cab565b91505092915050565b60008060008060808587031215611d3557611d3461182e565b5b6000611d4387828801611a7b565b9450506020611d5487828801611a7b565b9350506040611d65878288016119c6565b925050606085013567ffffffffffffffff811115611d8657611d85611833565b5b611d9287828801611ced565b91505092959194509250565b60008060408385031215611db557611db461182e565b5b6000611dc385828601611a7b565b9250506020611dd485828601611a7b565b9150509250929050565b600067ffffffffffffffff821115611df957611df8611bf0565b5b611e0282611939565b9050602081019050919050565b6000611e22611e1d84611dde565b611c50565b905082815260208101848484011115611e3e57611e3d611beb565b5b611e49848285611c9c565b509392505050565b600082601f830112611e6657611e65611be6565b5b8135611e76848260208601611e0f565b91505092915050565b60008060408385031215611e9657611e9561182e565b5b6000611ea485828601611a7b565b925050602083013567ffffffffffffffff811115611ec557611ec4611833565b5b611ed185828601611e51565b9150509250929050565b7f4e487b7100000000000000000000000000000000000000000000000000000000600052602260045260246000fd5b60006002820490506001821680611f2257607f821691505b602082108103611f3557611f34611edb565b5b50919050565b6000606082019050611f506000830186611a3a565b611f5d6020830185611b23565b611f6a6040830184611a3a565b949350505050565b600081905092915050565b6000611f88826118f3565b611f928185611f72565b9350611fa281856020860161190f565b80840191505092915050565b6000611fba8285611f7d565b9150611fc68284611f7d565b91508190509392505050565b7f4d617820737570706c7920726561636865640000000000000000000000000000600082015250565b60006120086012836118fe565b915061201382611fd2565b602082019050919050565b6000602082019050818103600083015261203781611ffb565b9050919050565b7f4e487b7100000000000000000000000000000000000000000000000000000000600052601160045260246000fd5b6000612078826119a5565b9150612083836119a5565b925082820190508082111561209b5761209a61203e565b5b92915050565b600081519050919050565b600082825260208201905092915050565b60006120c8826120a1565b6120d281856120ac565b93506120e281856020860161190f565b6120eb81611939565b840191505092915050565b600060808201905061210b6000830187611a3a565b6121186020830186611a3a565b6121256040830185611b23565b818103606083015261213781846120bd565b905095945050505050565b60008151905061215181611864565b92915050565b60006020828403121561216d5761216c61182e565b5b600061217b84828501612142565b91505092915050565b60008190508160005260206000209050919050565b60006020601f8301049050919050565b600082821b905092915050565b6000600883026121e67fffffffffffffffffffffffffffffffffffffffffffffffffffffffffffffffff826121a9565b6121f086836121a9565b95508019841693508086168417925050509392505050565b6000819050919050565b600061222d612228612223846119a5565b612208565b6119a5565b9050919050565b6000819050919050565b61224783612212565b61225b61225382612234565b8484546121b6565b825550505050565b600090565b612270612263565b61227b81848461223e565b505050565b5b8181101561229f57612294600082612268565b600181019050612281565b5050565b601f8211156122e4576122b581612184565b6122be84612199565b810160208510156122cd578190505b6122e16122d985612199565b830182612280565b50505b505050565b600082821c905092915050565b6000612307600019846008026122e9565b1980831691505092915050565b600061232083836122f6565b9150826002028217905092915050565b612339826118f3565b67ffffffffffffffff81111561235257612351611bf0565b5b61235c8254611f0a565b6123678282856122a3565b600060209050601f83116001811461239a5760008415612388578287015190505b6123928582612314565b8655506123fa565b601f1984166123a886612184565b60005b828110156123d0578489015182556001820191506020850194506020810190506123ab565b868310156123ed57848901516123e9601f8916826122f6565b8355505b6001600288020188555050505b505050505050565b60006040820190506124176000830185611a3a565b6124246020830184611b23565b9392505050565b7f4e487b7100000000000000000000000000000000000000000000000000000000600052601260045260246000fdfea26469706673582212200c59b6e5ede3d092be9b8fe2c4da22dc573524361a8e23fcd809f1baf01ee04f64736f6c63430008140033",
  "linkReferences": {},
  "deployedLinkReferences": {}
}